{
    "abi": [
        {
            "type": "constructor",
            "inputs": [],
            "stateMutability": "nonpayable"
        },
        {
            "type": "function",
            "name": "DEFAULT_ADMIN_ROLE",
            "inputs": [],
            "outputs": [
                {
                    "name": "",
                    "type": "bytes32",
                    "internalType": "bytes32"
                }
            ],
            "stateMutability": "view"
        },
        {
            "type": "function",
            "name": "DOMAIN_SEPARATOR",
            "inputs": [],
            "outputs": [
                {
                    "name": "",
                    "type": "bytes32",
                    "internalType": "bytes32"
                }
            ],
            "stateMutability": "view"
        },
        {
            "type": "function",
            "name": "adminRole",
            "inputs": [],
            "outputs": [
                {
                    "name": "",
                    "type": "address",
                    "internalType": "address"
                }
            ],
            "stateMutability": "view"
        },
        {
            "type": "function",
            "name": "allowance",
            "inputs": [
                {
                    "name": "owner",
                    "type": "address",
                    "internalType": "address"
                },
                {
                    "name": "spender",
                    "type": "address",
                    "internalType": "address"
                }
            ],
            "outputs": [
                {
                    "name": "",
                    "type": "uint256",
                    "internalType": "uint256"
                }
            ],
            "stateMutability": "view"
        },
        {
            "type": "function",
            "name": "approve",
            "inputs": [
                {
                    "name": "spender",
                    "type": "address",
                    "internalType": "address"
                },
                {
                    "name": "value",
                    "type": "uint256",
                    "internalType": "uint256"
                }
            ],
            "outputs": [
                {
                    "name": "",
                    "type": "bool",
                    "internalType": "bool"
                }
            ],
            "stateMutability": "nonpayable"
        },
        {
            "type": "function",
            "name": "asset",
            "inputs": [],
            "outputs": [
                {
                    "name": "",
                    "type": "address",
                    "internalType": "address"
                }
            ],
            "stateMutability": "view"
        },
        {
            "type": "function",
            "name": "assetManagerRole",
            "inputs": [],
            "outputs": [
                {
                    "name": "",
                    "type": "address",
                    "internalType": "address"
                }
            ],
            "stateMutability": "view"
        },
        {
            "type": "function",
            "name": "balanceOf",
            "inputs": [
                {
                    "name": "account",
                    "type": "address",
                    "internalType": "address"
                }
            ],
            "outputs": [
                {
                    "name": "",
                    "type": "uint256",
                    "internalType": "uint256"
                }
            ],
            "stateMutability": "view"
        },
        {
            "type": "function",
            "name": "burn",
            "inputs": [
                {
                    "name": "value",
                    "type": "uint256",
                    "internalType": "uint256"
                }
            ],
            "outputs": [],
            "stateMutability": "nonpayable"
        },
        {
            "type": "function",
            "name": "burnFrom",
            "inputs": [
                {
                    "name": "account",
                    "type": "address",
                    "internalType": "address"
                },
                {
                    "name": "value",
                    "type": "uint256",
                    "internalType": "uint256"
                }
            ],
            "outputs": [],
            "stateMutability": "nonpayable"
        },
        {
            "type": "function",
            "name": "calculateManagementFee",
            "inputs": [
                {
                    "name": "_AUM",
                    "type": "uint256",
                    "internalType": "uint256"
                }
            ],
            "outputs": [
                {
                    "name": "",
                    "type": "uint256",
                    "internalType": "uint256"
                }
            ],
            "stateMutability": "view"
        },
        {
            "type": "function",
            "name": "calculatePerformanceFee",
            "inputs": [
                {
                    "name": "_AUM",
                    "type": "uint256",
                    "internalType": "uint256"
                }
            ],
            "outputs": [
                {
                    "name": "",
                    "type": "uint256",
                    "internalType": "uint256"
                }
            ],
            "stateMutability": "view"
        },
        {
            "type": "function",
            "name": "calculateProtocolFee",
            "inputs": [
                {
                    "name": "_totalFeeShares",
                    "type": "uint256",
                    "internalType": "uint256"
                }
            ],
            "outputs": [
                {
                    "name": "managerFees",
                    "type": "uint256",
                    "internalType": "uint256"
                },
                {
                    "name": "protocolFees",
                    "type": "uint256",
                    "internalType": "uint256"
                }
            ],
            "stateMutability": "view"
        },
        {
            "type": "function",
            "name": "cancelRequestDeposit",
            "inputs": [],
            "outputs": [],
            "stateMutability": "nonpayable"
        },
        {
            "type": "function",
            "name": "cancelRequestRedeem",
            "inputs": [],
            "outputs": [],
            "stateMutability": "nonpayable"
        },
        {
            "type": "function",
            "name": "claimableDepositRequest",
            "inputs": [
                {
                    "name": "requestId",
                    "type": "uint256",
                    "internalType": "uint256"
                },
                {
                    "name": "controller",
                    "type": "address",
                    "internalType": "address"
                }
            ],
            "outputs": [
                {
                    "name": "assets",
                    "type": "uint256",
                    "internalType": "uint256"
                }
            ],
            "stateMutability": "view"
        },
        {
            "type": "function",
            "name": "claimableRedeemRequest",
            "inputs": [
                {
                    "name": "requestId",
                    "type": "uint256",
                    "internalType": "uint256"
                },
                {
                    "name": "controller",
                    "type": "address",
                    "internalType": "address"
                }
            ],
            "outputs": [
                {
                    "name": "shares",
                    "type": "uint256",
                    "internalType": "uint256"
                }
            ],
            "stateMutability": "view"
        },
        {
            "type": "function",
            "name": "claimableSilo",
            "inputs": [],
            "outputs": [
                {
                    "name": "",
                    "type": "address",
                    "internalType": "address"
                }
            ],
            "stateMutability": "view"
        },
        {
            "type": "function",
            "name": "convertToAssets",
            "inputs": [
                {
                    "name": "shares",
                    "type": "uint256",
                    "internalType": "uint256"
                }
            ],
            "outputs": [
                {
                    "name": "",
                    "type": "uint256",
                    "internalType": "uint256"
                }
            ],
            "stateMutability": "view"
        },
        {
            "type": "function",
            "name": "convertToAssets",
            "inputs": [
                {
                    "name": "shares",
                    "type": "uint256",
                    "internalType": "uint256"
                },
                {
                    "name": "requestId",
                    "type": "uint256",
                    "internalType": "uint256"
                }
            ],
            "outputs": [
                {
                    "name": "",
                    "type": "uint256",
                    "internalType": "uint256"
                }
            ],
            "stateMutability": "view"
        },
        {
            "type": "function",
            "name": "convertToShares",
            "inputs": [
                {
                    "name": "assets",
                    "type": "uint256",
                    "internalType": "uint256"
                }
            ],
            "outputs": [
                {
                    "name": "",
                    "type": "uint256",
                    "internalType": "uint256"
                }
            ],
            "stateMutability": "view"
        },
        {
            "type": "function",
            "name": "convertToShares",
            "inputs": [
                {
                    "name": "assets",
                    "type": "uint256",
                    "internalType": "uint256"
                },
                {
                    "name": "requestId",
                    "type": "uint256",
                    "internalType": "uint256"
                }
            ],
            "outputs": [
                {
                    "name": "",
                    "type": "uint256",
                    "internalType": "uint256"
                }
            ],
            "stateMutability": "view"
        },
        {
            "type": "function",
            "name": "deactivateWhitelist",
            "inputs": [],
            "outputs": [],
            "stateMutability": "nonpayable"
        },
        {
            "type": "function",
            "name": "decimals",
            "inputs": [],
            "outputs": [
                {
                    "name": "",
                    "type": "uint8",
                    "internalType": "uint8"
                }
            ],
            "stateMutability": "view"
        },
        {
            "type": "function",
            "name": "deposit",
            "inputs": [
                {
                    "name": "assets",
                    "type": "uint256",
                    "internalType": "uint256"
                },
                {
                    "name": "receiver",
                    "type": "address",
                    "internalType": "address"
                },
                {
                    "name": "controller",
                    "type": "address",
                    "internalType": "address"
                }
            ],
            "outputs": [
                {
                    "name": "",
                    "type": "uint256",
                    "internalType": "uint256"
                }
            ],
            "stateMutability": "nonpayable"
        },
        {
            "type": "function",
            "name": "deposit",
            "inputs": [
                {
                    "name": "assets",
                    "type": "uint256",
                    "internalType": "uint256"
                },
                {
                    "name": "receiver",
                    "type": "address",
                    "internalType": "address"
                }
            ],
            "outputs": [
                {
                    "name": "",
                    "type": "uint256",
                    "internalType": "uint256"
                }
            ],
            "stateMutability": "nonpayable"
        },
        {
            "type": "function",
            "name": "eip712Domain",
            "inputs": [],
            "outputs": [
                {
                    "name": "fields",
                    "type": "bytes1",
                    "internalType": "bytes1"
                },
                {
                    "name": "name",
                    "type": "string",
                    "internalType": "string"
                },
                {
                    "name": "version",
                    "type": "string",
                    "internalType": "string"
                },
                {
                    "name": "chainId",
                    "type": "uint256",
                    "internalType": "uint256"
                },
                {
                    "name": "verifyingContract",
                    "type": "address",
                    "internalType": "address"
                },
                {
                    "name": "salt",
                    "type": "bytes32",
                    "internalType": "bytes32"
                },
                {
                    "name": "extensions",
                    "type": "uint256[]",
                    "internalType": "uint256[]"
                }
            ],
            "stateMutability": "view"
        },
        {
            "type": "function",
            "name": "epochId",
            "inputs": [],
            "outputs": [
                {
                    "name": "",
                    "type": "uint256",
                    "internalType": "uint256"
                }
            ],
            "stateMutability": "view"
        },
        {
            "type": "function",
            "name": "getRoleAdmin",
            "inputs": [
                {
                    "name": "role",
                    "type": "bytes32",
                    "internalType": "bytes32"
                }
            ],
            "outputs": [
                {
                    "name": "",
                    "type": "bytes32",
                    "internalType": "bytes32"
                }
            ],
            "stateMutability": "view"
        },
        {
            "type": "function",
            "name": "getRoleMember",
            "inputs": [
                {
                    "name": "role",
                    "type": "bytes32",
                    "internalType": "bytes32"
                },
                {
                    "name": "index",
                    "type": "uint256",
                    "internalType": "uint256"
                }
            ],
            "outputs": [
                {
                    "name": "",
                    "type": "address",
                    "internalType": "address"
                }
            ],
            "stateMutability": "view"
        },
        {
            "type": "function",
            "name": "getRoleMemberCount",
            "inputs": [
                {
                    "name": "role",
                    "type": "bytes32",
                    "internalType": "bytes32"
                }
            ],
            "outputs": [
                {
                    "name": "",
                    "type": "uint256",
                    "internalType": "uint256"
                }
            ],
            "stateMutability": "view"
        },
        {
            "type": "function",
            "name": "getWhitelistActivated",
            "inputs": [],
            "outputs": [
                {
                    "name": "",
                    "type": "bool",
                    "internalType": "bool"
                }
            ],
            "stateMutability": "view"
        },
        {
            "type": "function",
            "name": "grantRole",
            "inputs": [
                {
                    "name": "role",
                    "type": "bytes32",
                    "internalType": "bytes32"
                },
                {
                    "name": "account",
                    "type": "address",
                    "internalType": "address"
                }
            ],
            "outputs": [],
            "stateMutability": "nonpayable"
        },
        {
            "type": "function",
            "name": "hasRole",
            "inputs": [
                {
                    "name": "role",
                    "type": "bytes32",
                    "internalType": "bytes32"
                },
                {
                    "name": "account",
                    "type": "address",
                    "internalType": "address"
                }
            ],
            "outputs": [
                {
                    "name": "",
                    "type": "bool",
                    "internalType": "bool"
                }
            ],
            "stateMutability": "view"
        },
        {
            "type": "function",
            "name": "highWaterMark",
            "inputs": [],
            "outputs": [
                {
                    "name": "",
                    "type": "uint256",
                    "internalType": "uint256"
                }
            ],
            "stateMutability": "view"
        },
        {
            "type": "function",
            "name": "hopperRole",
            "inputs": [],
            "outputs": [
                {
                    "name": "",
                    "type": "address",
                    "internalType": "address"
                }
            ],
            "stateMutability": "view"
        },
        {
            "type": "function",
            "name": "initialize",
            "inputs": [
                {
                    "name": "init",
                    "type": "tuple",
                    "internalType": "struct Vault.InitStruct",
                    "components": [
                        {
                            "name": "underlying",
                            "type": "address",
                            "internalType": "contract IERC20"
                        },
                        {
                            "name": "name",
                            "type": "string",
                            "internalType": "string"
                        },
                        {
                            "name": "symbol",
                            "type": "string",
                            "internalType": "string"
                        },
                        {
                            "name": "dao",
                            "type": "address",
                            "internalType": "address"
                        },
                        {
                            "name": "assetManager",
                            "type": "address",
                            "internalType": "address"
                        },
                        {
                            "name": "valorization",
                            "type": "address",
                            "internalType": "address"
                        },
                        {
                            "name": "admin",
                            "type": "address",
                            "internalType": "address"
                        },
                        {
                            "name": "feeReceiver",
                            "type": "address",
                            "internalType": "address"
                        },
                        {
                            "name": "managementFee",
                            "type": "uint256",
                            "internalType": "uint256"
                        },
                        {
                            "name": "performanceFee",
                            "type": "uint256",
                            "internalType": "uint256"
                        },
                        {
                            "name": "protocolFee",
                            "type": "uint256",
                            "internalType": "uint256"
                        },
                        {
                            "name": "cooldown",
                            "type": "uint256",
                            "internalType": "uint256"
                        },
                        {
                            "name": "enableWhitelist",
                            "type": "bool",
                            "internalType": "bool"
                        },
                        {
                            "name": "whitelist",
                            "type": "address[]",
                            "internalType": "address[]"
                        }
                    ]
                }
            ],
            "outputs": [],
            "stateMutability": "nonpayable"
        },
        {
            "type": "function",
            "name": "isOperator",
            "inputs": [
                {
                    "name": "controller",
                    "type": "address",
                    "internalType": "address"
                },
                {
                    "name": "operator",
                    "type": "address",
                    "internalType": "address"
                }
            ],
            "outputs": [
                {
                    "name": "",
                    "type": "bool",
                    "internalType": "bool"
                }
            ],
            "stateMutability": "view"
        },
        {
            "type": "function",
            "name": "isWhitelisted",
            "inputs": [
                {
                    "name": "account",
                    "type": "address",
                    "internalType": "address"
                }
            ],
            "outputs": [
                {
                    "name": "",
                    "type": "bool",
                    "internalType": "bool"
                }
            ],
            "stateMutability": "view"
        },
        {
            "type": "function",
            "name": "lastFeeTime",
            "inputs": [],
            "outputs": [
                {
                    "name": "",
                    "type": "uint256",
                    "internalType": "uint256"
                }
            ],
            "stateMutability": "view"
        },
        {
            "type": "function",
            "name": "managementFee",
            "inputs": [],
            "outputs": [
                {
                    "name": "",
                    "type": "uint256",
                    "internalType": "uint256"
                }
            ],
            "stateMutability": "view"
        },
        {
            "type": "function",
            "name": "maxDeposit",
            "inputs": [
                {
                    "name": "controller",
                    "type": "address",
                    "internalType": "address"
                }
            ],
            "outputs": [
                {
                    "name": "",
                    "type": "uint256",
                    "internalType": "uint256"
                }
            ],
            "stateMutability": "view"
        },
        {
            "type": "function",
            "name": "maxMint",
            "inputs": [
                {
                    "name": "",
                    "type": "address",
                    "internalType": "address"
                }
            ],
            "outputs": [
                {
                    "name": "",
                    "type": "uint256",
                    "internalType": "uint256"
                }
            ],
            "stateMutability": "view"
        },
        {
            "type": "function",
            "name": "maxRedeem",
            "inputs": [
                {
                    "name": "controller",
                    "type": "address",
                    "internalType": "address"
                }
            ],
            "outputs": [
                {
                    "name": "",
                    "type": "uint256",
                    "internalType": "uint256"
                }
            ],
            "stateMutability": "view"
        },
        {
            "type": "function",
            "name": "maxWithdraw",
            "inputs": [
                {
                    "name": "owner",
                    "type": "address",
                    "internalType": "address"
                }
            ],
            "outputs": [
                {
                    "name": "",
                    "type": "uint256",
                    "internalType": "uint256"
                }
            ],
            "stateMutability": "view"
        },
        {
            "type": "function",
            "name": "mint",
            "inputs": [
                {
                    "name": "shares",
                    "type": "uint256",
                    "internalType": "uint256"
                },
                {
                    "name": "receiver",
                    "type": "address",
                    "internalType": "address"
                }
            ],
            "outputs": [
                {
                    "name": "",
                    "type": "uint256",
                    "internalType": "uint256"
                }
            ],
            "stateMutability": "nonpayable"
        },
        {
            "type": "function",
            "name": "mint",
            "inputs": [
                {
                    "name": "shares",
                    "type": "uint256",
                    "internalType": "uint256"
                },
                {
                    "name": "receiver",
                    "type": "address",
                    "internalType": "address"
                },
                {
                    "name": "controller",
                    "type": "address",
                    "internalType": "address"
                }
            ],
            "outputs": [
                {
                    "name": "",
                    "type": "uint256",
                    "internalType": "uint256"
                }
            ],
            "stateMutability": "nonpayable"
        },
        {
            "type": "function",
            "name": "name",
            "inputs": [],
            "outputs": [
                {
                    "name": "",
                    "type": "string",
                    "internalType": "string"
                }
            ],
            "stateMutability": "view"
        },
        {
            "type": "function",
            "name": "nonces",
            "inputs": [
                {
                    "name": "owner",
                    "type": "address",
                    "internalType": "address"
                }
            ],
            "outputs": [
                {
                    "name": "",
                    "type": "uint256",
                    "internalType": "uint256"
                }
            ],
            "stateMutability": "view"
        },
        {
            "type": "function",
            "name": "paused",
            "inputs": [],
            "outputs": [
                {
                    "name": "",
                    "type": "bool",
                    "internalType": "bool"
                }
            ],
            "stateMutability": "view"
        },
        {
            "type": "function",
            "name": "pendingDepositRequest",
            "inputs": [
                {
                    "name": "requestId",
                    "type": "uint256",
                    "internalType": "uint256"
                },
                {
                    "name": "controller",
                    "type": "address",
                    "internalType": "address"
                }
            ],
            "outputs": [
                {
                    "name": "assets",
                    "type": "uint256",
                    "internalType": "uint256"
                }
            ],
            "stateMutability": "view"
        },
        {
            "type": "function",
            "name": "pendingRedeemRequest",
            "inputs": [
                {
                    "name": "requestId",
                    "type": "uint256",
                    "internalType": "uint256"
                },
                {
                    "name": "controller",
                    "type": "address",
                    "internalType": "address"
                }
            ],
            "outputs": [
                {
                    "name": "shares",
                    "type": "uint256",
                    "internalType": "uint256"
                }
            ],
            "stateMutability": "view"
        },
        {
            "type": "function",
            "name": "pendingSilo",
            "inputs": [],
            "outputs": [
                {
                    "name": "",
                    "type": "address",
                    "internalType": "address"
                }
            ],
            "stateMutability": "view"
        },
        {
            "type": "function",
            "name": "performanceFee",
            "inputs": [],
            "outputs": [
                {
                    "name": "",
                    "type": "uint256",
                    "internalType": "uint256"
                }
            ],
            "stateMutability": "view"
        },
        {
            "type": "function",
            "name": "permit",
            "inputs": [
                {
                    "name": "owner",
                    "type": "address",
                    "internalType": "address"
                },
                {
                    "name": "spender",
                    "type": "address",
                    "internalType": "address"
                },
                {
                    "name": "value",
                    "type": "uint256",
                    "internalType": "uint256"
                },
                {
                    "name": "deadline",
                    "type": "uint256",
                    "internalType": "uint256"
                },
                {
                    "name": "v",
                    "type": "uint8",
                    "internalType": "uint8"
                },
                {
                    "name": "r",
                    "type": "bytes32",
                    "internalType": "bytes32"
                },
                {
                    "name": "s",
                    "type": "bytes32",
                    "internalType": "bytes32"
                }
            ],
            "outputs": [],
            "stateMutability": "nonpayable"
        },
        {
            "type": "function",
            "name": "previewDeposit",
            "inputs": [
                {
                    "name": "",
                    "type": "uint256",
                    "internalType": "uint256"
                }
            ],
            "outputs": [
                {
                    "name": "shares",
                    "type": "uint256",
                    "internalType": "uint256"
                }
            ],
            "stateMutability": "pure"
        },
        {
            "type": "function",
            "name": "previewMint",
            "inputs": [
                {
                    "name": "",
                    "type": "uint256",
                    "internalType": "uint256"
                }
            ],
            "outputs": [
                {
                    "name": "assets",
                    "type": "uint256",
                    "internalType": "uint256"
                }
            ],
            "stateMutability": "pure"
        },
        {
            "type": "function",
            "name": "previewRedeem",
            "inputs": [
                {
                    "name": "",
                    "type": "uint256",
                    "internalType": "uint256"
                }
            ],
            "outputs": [
                {
                    "name": "assets",
                    "type": "uint256",
                    "internalType": "uint256"
                }
            ],
            "stateMutability": "pure"
        },
        {
            "type": "function",
            "name": "previewWithdraw",
            "inputs": [
                {
                    "name": "",
                    "type": "uint256",
                    "internalType": "uint256"
                }
            ],
            "outputs": [
                {
                    "name": "shares",
                    "type": "uint256",
                    "internalType": "uint256"
                }
            ],
            "stateMutability": "pure"
        },
        {
            "type": "function",
            "name": "protocolFee",
            "inputs": [],
            "outputs": [
                {
                    "name": "",
                    "type": "uint256",
                    "internalType": "uint256"
                }
            ],
            "stateMutability": "view"
        },
        {
            "type": "function",
            "name": "redeem",
            "inputs": [
                {
                    "name": "shares",
                    "type": "uint256",
                    "internalType": "uint256"
                },
                {
                    "name": "receiver",
                    "type": "address",
                    "internalType": "address"
                },
                {
                    "name": "controller",
                    "type": "address",
                    "internalType": "address"
                }
            ],
            "outputs": [
                {
                    "name": "",
                    "type": "uint256",
                    "internalType": "uint256"
                }
            ],
            "stateMutability": "nonpayable"
        },
        {
            "type": "function",
            "name": "renounceRole",
            "inputs": [
                {
                    "name": "role",
                    "type": "bytes32",
                    "internalType": "bytes32"
                },
                {
                    "name": "callerConfirmation",
                    "type": "address",
                    "internalType": "address"
                }
            ],
            "outputs": [],
            "stateMutability": "nonpayable"
        },
        {
            "type": "function",
            "name": "requestDeposit",
            "inputs": [
                {
                    "name": "assets",
                    "type": "uint256",
                    "internalType": "uint256"
                },
                {
                    "name": "controller",
                    "type": "address",
                    "internalType": "address"
                },
                {
                    "name": "owner",
                    "type": "address",
                    "internalType": "address"
                }
            ],
            "outputs": [
                {
                    "name": "",
                    "type": "uint256",
                    "internalType": "uint256"
                }
            ],
            "stateMutability": "nonpayable"
        },
        {
            "type": "function",
            "name": "requestRedeem",
            "inputs": [
                {
                    "name": "shares",
                    "type": "uint256",
                    "internalType": "uint256"
                },
                {
                    "name": "controller",
                    "type": "address",
                    "internalType": "address"
                },
                {
                    "name": "owner",
                    "type": "address",
                    "internalType": "address"
                }
            ],
            "outputs": [
                {
                    "name": "",
                    "type": "uint256",
                    "internalType": "uint256"
                }
            ],
            "stateMutability": "nonpayable"
        },
        {
            "type": "function",
            "name": "revokeRole",
            "inputs": [
                {
                    "name": "role",
                    "type": "bytes32",
                    "internalType": "bytes32"
                },
                {
                    "name": "account",
                    "type": "address",
                    "internalType": "address"
                }
            ],
            "outputs": [],
            "stateMutability": "nonpayable"
        },
        {
            "type": "function",
            "name": "revokeWhitelist",
            "inputs": [
                {
                    "name": "account",
                    "type": "address",
                    "internalType": "address"
                }
            ],
            "outputs": [],
            "stateMutability": "nonpayable"
        },
        {
            "type": "function",
            "name": "setManagementFee",
            "inputs": [],
            "outputs": [],
            "stateMutability": "nonpayable"
        },
        {
            "type": "function",
            "name": "setOperator",
            "inputs": [
                {
                    "name": "operator",
                    "type": "address",
                    "internalType": "address"
                },
                {
                    "name": "approved",
                    "type": "bool",
                    "internalType": "bool"
                }
            ],
            "outputs": [
                {
                    "name": "success",
                    "type": "bool",
                    "internalType": "bool"
                }
            ],
            "stateMutability": "nonpayable"
        },
        {
            "type": "function",
            "name": "setPerformanceFee",
            "inputs": [],
            "outputs": [],
            "stateMutability": "nonpayable"
        },
        {
            "type": "function",
            "name": "setProtocolFee",
            "inputs": [],
            "outputs": [],
            "stateMutability": "nonpayable"
        },
        {
            "type": "function",
            "name": "settle",
            "inputs": [],
            "outputs": [],
            "stateMutability": "nonpayable"
        },
        {
            "type": "function",
            "name": "share",
            "inputs": [],
            "outputs": [
                {
                    "name": "",
                    "type": "address",
                    "internalType": "address"
                }
            ],
            "stateMutability": "view"
        },
        {
            "type": "function",
            "name": "supportsInterface",
            "inputs": [
                {
                    "name": "interfaceId",
                    "type": "bytes4",
                    "internalType": "bytes4"
                }
            ],
            "outputs": [
                {
                    "name": "",
                    "type": "bool",
                    "internalType": "bool"
                }
            ],
            "stateMutability": "view"
        },
        {
            "type": "function",
            "name": "symbol",
            "inputs": [],
            "outputs": [
                {
                    "name": "",
                    "type": "string",
                    "internalType": "string"
                }
            ],
            "stateMutability": "view"
        },
        {
            "type": "function",
            "name": "toUnwind",
            "inputs": [],
            "outputs": [
                {
                    "name": "",
                    "type": "uint256",
                    "internalType": "uint256"
                }
            ],
            "stateMutability": "view"
        },
        {
            "type": "function",
            "name": "totalAssets",
            "inputs": [],
            "outputs": [
                {
                    "name": "",
                    "type": "uint256",
                    "internalType": "uint256"
                }
            ],
            "stateMutability": "view"
        },
        {
            "type": "function",
            "name": "totalSupply",
            "inputs": [],
            "outputs": [
                {
                    "name": "",
                    "type": "uint256",
                    "internalType": "uint256"
                }
            ],
            "stateMutability": "view"
        },
        {
            "type": "function",
            "name": "transfer",
            "inputs": [
                {
                    "name": "to",
                    "type": "address",
                    "internalType": "address"
                },
                {
                    "name": "value",
                    "type": "uint256",
                    "internalType": "uint256"
                }
            ],
            "outputs": [
                {
                    "name": "",
                    "type": "bool",
                    "internalType": "bool"
                }
            ],
            "stateMutability": "nonpayable"
        },
        {
            "type": "function",
            "name": "transferFrom",
            "inputs": [
                {
                    "name": "from",
                    "type": "address",
                    "internalType": "address"
                },
                {
                    "name": "to",
                    "type": "address",
                    "internalType": "address"
                },
                {
                    "name": "value",
                    "type": "uint256",
                    "internalType": "uint256"
                }
            ],
            "outputs": [
                {
                    "name": "",
                    "type": "bool",
                    "internalType": "bool"
                }
            ],
            "stateMutability": "nonpayable"
        },
        {
            "type": "function",
            "name": "unwind",
            "inputs": [
                {
                    "name": "amount",
                    "type": "uint256",
                    "internalType": "uint256"
                }
            ],
            "outputs": [],
            "stateMutability": "nonpayable"
        },
        {
            "type": "function",
            "name": "updateManagementFee",
            "inputs": [
                {
                    "name": "_managementFee",
                    "type": "uint256",
                    "internalType": "uint256"
                }
            ],
            "outputs": [],
            "stateMutability": "nonpayable"
        },
        {
            "type": "function",
            "name": "updatePerformanceFee",
            "inputs": [
                {
                    "name": "_performanceFee",
                    "type": "uint256",
                    "internalType": "uint256"
                }
            ],
            "outputs": [],
            "stateMutability": "nonpayable"
        },
        {
            "type": "function",
            "name": "updateProtocolFee",
            "inputs": [
                {
                    "name": "_protocolFee",
                    "type": "uint256",
                    "internalType": "uint256"
                }
            ],
            "outputs": [],
            "stateMutability": "nonpayable"
        },
        {
            "type": "function",
            "name": "updateTotalAssets",
            "inputs": [
                {
                    "name": "_newTotalAssets",
                    "type": "uint256",
                    "internalType": "uint256"
                }
            ],
            "outputs": [],
            "stateMutability": "nonpayable"
        },
        {
            "type": "function",
            "name": "valorizationRole",
            "inputs": [],
            "outputs": [
                {
                    "name": "",
                    "type": "address",
                    "internalType": "address"
                }
            ],
            "stateMutability": "view"
        },
        {
            "type": "function",
            "name": "whitelist",
            "inputs": [
                {
                    "name": "account",
                    "type": "address",
                    "internalType": "address"
                }
            ],
            "outputs": [],
            "stateMutability": "nonpayable"
        },
        {
            "type": "function",
            "name": "whitelist",
            "inputs": [
                {
                    "name": "accounts",
                    "type": "address[]",
                    "internalType": "address[]"
                }
            ],
            "outputs": [],
            "stateMutability": "nonpayable"
        },
        {
            "type": "function",
            "name": "withdraw",
            "inputs": [
                {
                    "name": "assets",
                    "type": "uint256",
                    "internalType": "uint256"
                },
                {
                    "name": "receiver",
                    "type": "address",
                    "internalType": "address"
                },
                {
                    "name": "controller",
                    "type": "address",
                    "internalType": "address"
                }
            ],
            "outputs": [
                {
                    "name": "",
                    "type": "uint256",
                    "internalType": "uint256"
                }
            ],
            "stateMutability": "nonpayable"
        },
        {
            "type": "event",
            "name": "Approval",
            "inputs": [
                {
                    "name": "owner",
                    "type": "address",
                    "indexed": true,
                    "internalType": "address"
                },
                {
                    "name": "spender",
                    "type": "address",
                    "indexed": true,
                    "internalType": "address"
                },
                {
                    "name": "value",
                    "type": "uint256",
                    "indexed": false,
                    "internalType": "uint256"
                }
            ],
            "anonymous": false
        },
        {
            "type": "event",
            "name": "Deposit",
            "inputs": [
                {
                    "name": "sender",
                    "type": "address",
                    "indexed": true,
                    "internalType": "address"
                },
                {
                    "name": "owner",
                    "type": "address",
                    "indexed": true,
                    "internalType": "address"
                },
                {
                    "name": "assets",
                    "type": "uint256",
                    "indexed": false,
                    "internalType": "uint256"
                },
                {
                    "name": "shares",
                    "type": "uint256",
                    "indexed": false,
                    "internalType": "uint256"
                }
            ],
            "anonymous": false
        },
        {
            "type": "event",
            "name": "DepositRequest",
            "inputs": [
                {
                    "name": "controller",
                    "type": "address",
                    "indexed": true,
                    "internalType": "address"
                },
                {
                    "name": "owner",
                    "type": "address",
                    "indexed": true,
                    "internalType": "address"
                },
                {
                    "name": "requestId",
                    "type": "uint256",
                    "indexed": true,
                    "internalType": "uint256"
                },
                {
                    "name": "sender",
                    "type": "address",
                    "indexed": false,
                    "internalType": "address"
                },
                {
                    "name": "assets",
                    "type": "uint256",
                    "indexed": false,
                    "internalType": "uint256"
                }
            ],
            "anonymous": false
        },
        {
            "type": "event",
            "name": "EIP712DomainChanged",
            "inputs": [],
            "anonymous": false
        },
        {
            "type": "event",
            "name": "Initialized",
            "inputs": [
                {
                    "name": "version",
                    "type": "uint64",
                    "indexed": false,
                    "internalType": "uint64"
                }
            ],
            "anonymous": false
        },
        {
            "type": "event",
            "name": "OperatorSet",
            "inputs": [
                {
                    "name": "controller",
                    "type": "address",
                    "indexed": true,
                    "internalType": "address"
                },
                {
                    "name": "operator",
                    "type": "address",
                    "indexed": true,
                    "internalType": "address"
                },
                {
                    "name": "approved",
                    "type": "bool",
                    "indexed": false,
                    "internalType": "bool"
                }
            ],
            "anonymous": false
        },
        {
            "type": "event",
            "name": "Paused",
            "inputs": [
                {
                    "name": "account",
                    "type": "address",
                    "indexed": false,
                    "internalType": "address"
                }
            ],
            "anonymous": false
        },
        {
            "type": "event",
            "name": "RedeemRequest",
            "inputs": [
                {
                    "name": "controller",
                    "type": "address",
                    "indexed": true,
                    "internalType": "address"
                },
                {
                    "name": "owner",
                    "type": "address",
                    "indexed": true,
                    "internalType": "address"
                },
                {
                    "name": "requestId",
                    "type": "uint256",
                    "indexed": true,
                    "internalType": "uint256"
                },
                {
                    "name": "sender",
                    "type": "address",
                    "indexed": false,
                    "internalType": "address"
                },
                {
                    "name": "shares",
                    "type": "uint256",
                    "indexed": false,
                    "internalType": "uint256"
                }
            ],
            "anonymous": false
        },
        {
            "type": "event",
            "name": "RoleAdminChanged",
            "inputs": [
                {
                    "name": "role",
                    "type": "bytes32",
                    "indexed": true,
                    "internalType": "bytes32"
                },
                {
                    "name": "previousAdminRole",
                    "type": "bytes32",
                    "indexed": true,
                    "internalType": "bytes32"
                },
                {
                    "name": "newAdminRole",
                    "type": "bytes32",
                    "indexed": true,
                    "internalType": "bytes32"
                }
            ],
            "anonymous": false
        },
        {
            "type": "event",
            "name": "RoleGranted",
            "inputs": [
                {
                    "name": "role",
                    "type": "bytes32",
                    "indexed": true,
                    "internalType": "bytes32"
                },
                {
                    "name": "account",
                    "type": "address",
                    "indexed": true,
                    "internalType": "address"
                },
                {
                    "name": "sender",
                    "type": "address",
                    "indexed": true,
                    "internalType": "address"
                }
            ],
            "anonymous": false
        },
        {
            "type": "event",
            "name": "RoleRevoked",
            "inputs": [
                {
                    "name": "role",
                    "type": "bytes32",
                    "indexed": true,
                    "internalType": "bytes32"
                },
                {
                    "name": "account",
                    "type": "address",
                    "indexed": true,
                    "internalType": "address"
                },
                {
                    "name": "sender",
                    "type": "address",
                    "indexed": true,
                    "internalType": "address"
                }
            ],
            "anonymous": false
        },
        {
            "type": "event",
            "name": "Transfer",
            "inputs": [
                {
                    "name": "from",
                    "type": "address",
                    "indexed": true,
                    "internalType": "address"
                },
                {
                    "name": "to",
                    "type": "address",
                    "indexed": true,
                    "internalType": "address"
                },
                {
                    "name": "value",
                    "type": "uint256",
                    "indexed": false,
                    "internalType": "uint256"
                }
            ],
            "anonymous": false
        },
        {
            "type": "event",
            "name": "Unpaused",
            "inputs": [
                {
                    "name": "account",
                    "type": "address",
                    "indexed": false,
                    "internalType": "address"
                }
            ],
            "anonymous": false
        },
        {
            "type": "event",
            "name": "Withdraw",
            "inputs": [
                {
                    "name": "sender",
                    "type": "address",
                    "indexed": true,
                    "internalType": "address"
                },
                {
                    "name": "receiver",
                    "type": "address",
                    "indexed": true,
                    "internalType": "address"
                },
                {
                    "name": "owner",
                    "type": "address",
                    "indexed": true,
                    "internalType": "address"
                },
                {
                    "name": "assets",
                    "type": "uint256",
                    "indexed": false,
                    "internalType": "uint256"
                },
                {
                    "name": "shares",
                    "type": "uint256",
                    "indexed": false,
                    "internalType": "uint256"
                }
            ],
            "anonymous": false
        },
        {
            "type": "error",
            "name": "AboveMaxFee",
            "inputs": []
        },
        {
            "type": "error",
            "name": "AccessControlBadConfirmation",
            "inputs": []
        },
        {
            "type": "error",
            "name": "AccessControlUnauthorizedAccount",
            "inputs": [
                {
                    "name": "account",
                    "type": "address",
                    "internalType": "address"
                },
                {
                    "name": "neededRole",
                    "type": "bytes32",
                    "internalType": "bytes32"
                }
            ]
        },
        {
            "type": "error",
            "name": "AddressEmptyCode",
            "inputs": [
                {
                    "name": "target",
                    "type": "address",
                    "internalType": "address"
                }
            ]
        },
        {
            "type": "error",
            "name": "AddressInsufficientBalance",
            "inputs": [
                {
                    "name": "account",
                    "type": "address",
                    "internalType": "address"
                }
            ]
        },
        {
            "type": "error",
            "name": "AssetManagerNotSet",
            "inputs": []
        },
        {
            "type": "error",
            "name": "CooldownNotOver",
            "inputs": []
        },
        {
            "type": "error",
            "name": "CooldownNotOver",
            "inputs": []
        },
        {
            "type": "error",
            "name": "DepositZero",
            "inputs": []
        },
        {
            "type": "error",
            "name": "ECDSAInvalidSignature",
            "inputs": []
        },
        {
            "type": "error",
            "name": "ECDSAInvalidSignatureLength",
            "inputs": [
                {
                    "name": "length",
                    "type": "uint256",
                    "internalType": "uint256"
                }
            ]
        },
        {
            "type": "error",
            "name": "ECDSAInvalidSignatureS",
            "inputs": [
                {
                    "name": "s",
                    "type": "bytes32",
                    "internalType": "bytes32"
                }
            ]
        },
        {
            "type": "error",
            "name": "ERC20InsufficientAllowance",
            "inputs": [
                {
                    "name": "spender",
                    "type": "address",
                    "internalType": "address"
                },
                {
                    "name": "allowance",
                    "type": "uint256",
                    "internalType": "uint256"
                },
                {
                    "name": "needed",
                    "type": "uint256",
                    "internalType": "uint256"
                }
            ]
        },
        {
            "type": "error",
            "name": "ERC20InsufficientBalance",
            "inputs": [
                {
                    "name": "sender",
                    "type": "address",
                    "internalType": "address"
                },
                {
                    "name": "balance",
                    "type": "uint256",
                    "internalType": "uint256"
                },
                {
                    "name": "needed",
                    "type": "uint256",
                    "internalType": "uint256"
                }
            ]
        },
        {
            "type": "error",
            "name": "ERC20InvalidApprover",
            "inputs": [
                {
                    "name": "approver",
                    "type": "address",
                    "internalType": "address"
                }
            ]
        },
        {
            "type": "error",
            "name": "ERC20InvalidReceiver",
            "inputs": [
                {
                    "name": "receiver",
                    "type": "address",
                    "internalType": "address"
                }
            ]
        },
        {
            "type": "error",
            "name": "ERC20InvalidSender",
            "inputs": [
                {
                    "name": "sender",
                    "type": "address",
                    "internalType": "address"
                }
            ]
        },
        {
            "type": "error",
            "name": "ERC20InvalidSpender",
            "inputs": [
                {
                    "name": "spender",
                    "type": "address",
                    "internalType": "address"
                }
            ]
        },
        {
            "type": "error",
            "name": "ERC2612ExpiredSignature",
            "inputs": [
                {
                    "name": "deadline",
                    "type": "uint256",
                    "internalType": "uint256"
                }
            ]
        },
        {
            "type": "error",
            "name": "ERC2612InvalidSigner",
            "inputs": [
                {
                    "name": "signer",
                    "type": "address",
                    "internalType": "address"
                },
                {
                    "name": "owner",
                    "type": "address",
                    "internalType": "address"
                }
            ]
        },
        {
            "type": "error",
            "name": "ERC4626ExceededMaxDeposit",
            "inputs": [
                {
                    "name": "receiver",
                    "type": "address",
                    "internalType": "address"
                },
                {
                    "name": "assets",
                    "type": "uint256",
                    "internalType": "uint256"
                },
                {
                    "name": "max",
                    "type": "uint256",
                    "internalType": "uint256"
                }
            ]
        },
        {
            "type": "error",
            "name": "ERC4626ExceededMaxMint",
            "inputs": [
                {
                    "name": "receiver",
                    "type": "address",
                    "internalType": "address"
                },
                {
                    "name": "shares",
                    "type": "uint256",
                    "internalType": "uint256"
                },
                {
                    "name": "max",
                    "type": "uint256",
                    "internalType": "uint256"
                }
            ]
        },
        {
            "type": "error",
            "name": "ERC4626ExceededMaxRedeem",
            "inputs": [
                {
                    "name": "owner",
                    "type": "address",
                    "internalType": "address"
                },
                {
                    "name": "shares",
                    "type": "uint256",
                    "internalType": "uint256"
                },
                {
                    "name": "max",
                    "type": "uint256",
                    "internalType": "uint256"
                }
            ]
        },
        {
            "type": "error",
            "name": "ERC4626ExceededMaxWithdraw",
            "inputs": [
                {
                    "name": "owner",
                    "type": "address",
                    "internalType": "address"
                },
                {
                    "name": "assets",
                    "type": "uint256",
                    "internalType": "uint256"
                },
                {
                    "name": "max",
                    "type": "uint256",
                    "internalType": "uint256"
                }
            ]
        },
        {
            "type": "error",
            "name": "ERC7540InvalidOperator",
            "inputs": []
        },
        {
            "type": "error",
            "name": "ERC7540PreviewDepositDisabled",
            "inputs": []
        },
        {
            "type": "error",
            "name": "ERC7540PreviewMintDisabled",
            "inputs": []
        },
        {
            "type": "error",
            "name": "ERC7540PreviewRedeemDisabled",
            "inputs": []
        },
        {
            "type": "error",
            "name": "ERC7540PreviewWithdrawDisabled",
            "inputs": []
        },
        {
            "type": "error",
            "name": "EnforcedPause",
            "inputs": []
        },
        {
            "type": "error",
            "name": "ExpectedPause",
            "inputs": []
        },
        {
            "type": "error",
            "name": "FailedInnerCall",
            "inputs": []
        },
        {
            "type": "error",
            "name": "InvalidAccountNonce",
            "inputs": [
                {
                    "name": "account",
                    "type": "address",
                    "internalType": "address"
                },
                {
                    "name": "currentNonce",
                    "type": "uint256",
                    "internalType": "uint256"
                }
            ]
        },
        {
            "type": "error",
            "name": "InvalidInitialization",
            "inputs": []
        },
        {
            "type": "error",
            "name": "MathOverflowedMulDiv",
            "inputs": []
        },
        {
            "type": "error",
            "name": "NotInitializing",
            "inputs": []
        },
        {
            "type": "error",
            "name": "NotWhitelisted",
            "inputs": [
                {
                    "name": "account",
                    "type": "address",
                    "internalType": "address"
                }
            ]
        },
        {
            "type": "error",
            "name": "RedeemZero",
            "inputs": []
        },
        {
            "type": "error",
            "name": "RequestDepositZero",
            "inputs": []
        },
        {
            "type": "error",
            "name": "RequestIdNotClaimable",
            "inputs": []
        },
        {
            "type": "error",
            "name": "SafeERC20FailedOperation",
            "inputs": [
                {
                    "name": "token",
                    "type": "address",
                    "internalType": "address"
                }
            ]
        },
        {
            "type": "error",
            "name": "WithdrawZero",
            "inputs": []
        },
        {
            "type": "error",
            "name": "ZeroPendingDeposit",
            "inputs": []
        },
        {
            "type": "error",
            "name": "ZeroPendingRedeem",
            "inputs": []
        }
    ],
    "bytecode": {
        "object": "0x6080604052348015600f57600080fd5b5061545f8061001f6000396000f3fe608060405234801561001057600080fd5b50600436106104d75760003560e01c806384b0196e11610283578063ba0876521161015c578063d905777e116100ce578063e898133011610092578063e898133014610a80578063eaed1d0714610a93578063ef8b30f714610aa6578063f4d0ebc714610ab9578063f5a23d8d14610acc578063fad898c214610adf57600080fd5b8063d905777e14610a2c578063da39b3e714610a3f578063db2088f414610a52578063dd62ed3e14610a65578063e72d1d0914610a7857600080fd5b8063c6e6f59211610120578063c6e6f592146109c5578063ca15c873146109d8578063cce96c21146109eb578063ce96cb77146109f3578063d505accf14610a06578063d547741f14610a1957600080fd5b8063ba0876521461097a578063bbdf540c1461098d578063bd8aa78014610995578063c63d75b6146109a8578063c6d8a074146109bd57600080fd5b80639c7f3315116101f5578063a9059cbb116101b9578063a9059cbb146108ff578063aa9bbc0c14610912578063b0e21e8a1461091a578063b3d7f6b914610941578063b460af9414610954578063b6363cf21461096757600080fd5b80639c7f3315146108ce578063a217fddf146108e1578063a6f7f5d6146108e9578063a8ce7959146108f1578063a8d5fd65146108f957600080fd5b806394bf804d1161024757806394bf804d1461085d57806395d89b4114610870578063995ea21a146108785780639b19251a1461088b5780639c4289211461089e5780639c7c270c146108a657600080fd5b806384b0196e146107e257806385b77f45146107fd57806387788782146108105780639010d07c1461083757806391d148541461084a57600080fd5b806338d52e0f116103b557806351ab6c11116103275780636e553f65116102eb5780636e553f651461077b57806370a082311461078e57806373b99f10146107a157806379cc6790146107a95780637d41c86e146107bc5780637ecebe00146107cf57600080fd5b806351ab6c111461071e578063558a72971461073157806358205209146107445780635c975abb1461074c57806366b5ae1f1461075457600080fd5b806342966c681161037957806342966c68146106cd578063442b92d8146106e057806349dcd6a1146106f35780634a3b62ae146106fb5780634cdad5061461070357806350921b771461071657600080fd5b806338d52e0f146106845780633af32abf1461068c578063402d267d1461069f57806342219a93146106b25780634256dd78146106ba57600080fd5b80631e8410da1161044e5780632e2d2984116104125780632e2d2984146106215780632f2ff15d14610634578063313ce567146106475780633597d7f3146106615780633644e5151461066957806336568abe1461067157600080fd5b80631e8410da146105c05780631f4f519c146105d557806323b872dd146105e8578063248a9ca3146105fb57806326c6f96c1461060e57600080fd5b806307a2d13a116104a057806307a2d13a14610564578063095ea7b3146105775780630a28a4771461058a57806311da60b41461059d57806318160ddd146105a5578063181e7b3b146105ad57600080fd5b80629f2f3c146104dc57806301e1d1141461050157806301ffc9a714610517578063030d624a1461053a57806306fdde031461054f575b600080fd5b6104e4610af2565b6040516001600160a01b0390911681526020015b60405180910390f35b610509610b03565b6040519081526020016104f8565b61052a6105253660046144e6565b610b18565b60405190151581526020016104f8565b61054d610548366004614510565b610b38565b005b610557610b50565b6040516104f89190614579565b610509610572366004614510565b610bf9565b61052a6105853660046145ac565b610c06565b610509610598366004614510565b610c1e565b61054d610c3e565b61050961100f565b6105096105bb3660046145d8565b61102c565b60008051602061530a83398151915254610509565b61054d6105e3366004614510565b611041565b61052a6105f63660046145fa565b6110a1565b610509610609366004614510565b6110c5565b61050961061c36600461463b565b6110e7565b61050961062f36600461466b565b611176565b61054d61064236600461463b565b6111cb565b61064f611217565b60405160ff90911681526020016104f8565b61054d611221565b610509611258565b61054d61067f36600461463b565b611262565b6104e4611295565b61052a61069a3660046146ad565b6112c3565b6105096106ad3660046146ad565b6112dd565b61054d6112ea565b61054d6106c8366004614510565b611300565b61054d6106db366004614510565b611321565b61054d6106ee366004614842565b61132b565b6104e46116f7565b610509611712565b610509610711366004614510565b61172c565b61052a611747565b61050961072c366004614510565b611776565b61052a61073f3660046149a0565b6117d1565b61054d611855565b61052a6118e8565b7fa5292f7ccd85acc1b3080c01f5da9af7799f2c26826bd4d79081d6511780bd0954610509565b61050961078936600461463b565b611911565b61050961079c3660046146ad565b61191e565b61054d611951565b61054d6107b73660046145ac565b611971565b6105096107ca36600461466b565b611986565b6105096107dd3660046146ad565b611af7565b6107ea611b02565b6040516104f897969594939291906149ce565b61050961080b36600461466b565b611bb3565b7fa5292f7ccd85acc1b3080c01f5da9af7799f2c26826bd4d79081d6511780bd0654610509565b6104e46108453660046145d8565b611c09565b61052a61085836600461463b565b611c38565b61050961086b36600461463b565b611c70565b610557611c7d565b61050961088636600461463b565b611cbc565b61054d6108993660046146ad565b611d47565b61054d611d5f565b6108b96108b4366004614510565b611df7565b604080519283526020830191909152016104f8565b61054d6108dc3660046146ad565b611e69565b610509600081565b610509611e81565b6104e4611e98565b306104e4565b61052a61090d3660046145ac565b611eb3565b610509611ec1565b7fa5292f7ccd85acc1b3080c01f5da9af7799f2c26826bd4d79081d6511780bd0354610509565b61050961094f366004614510565b611ecc565b61050961096236600461466b565b611ee7565b61052a610975366004614a67565b611f33565b61050961098836600461466b565b611f6b565b61054d611fb7565b61054d6109a3366004614a95565b611fca565b6105096109b63660046146ad565b5060001990565b6104e461200f565b6105096109d3366004614510565b61202d565b6105096109e6366004614510565b61203a565b6104e4612060565b610509610a013660046146ad565b61207e565b61054d610a14366004614aca565b61208c565b61054d610a2736600461463b565b6121e5565b610509610a3a3660046146ad565b612207565b610509610a4d36600461466b565b612214565b610509610a603660046145d8565b612260565b610509610a73366004614a67565b61226e565b6104e46122b8565b61054d610a8e366004614510565b6122d3565b610509610aa136600461463b565b6122e7565b610509610ab4366004614510565b6123a6565b610509610ac7366004614510565b6123c1565b610509610ada36600461463b565b61240f565b61054d610aed366004614510565b61249a565b6000610afe8180611c09565b905090565b600080610b0e6124bc565b6001015492915050565b6000610b23826124e0565b80610b325750610b3282612505565b92915050565b6000610b43816125a7565b610b4c826125b1565b5050565b6060600060008051602061532a8339815191525b9050806003018054610b7590614b41565b80601f0160208091040260200160405190810160405280929190818152602001828054610ba190614b41565b8015610bee5780601f10610bc357610100808354040283529160200191610bee565b820191906000526020600020905b815481529060010190602001808311610bd157829003601f168201915b505050505091505090565b6000610b328260006125f4565b600033610c14818585612633565b5060019392505050565b600060405163954bf3b160e01b815260040160405180910390fd5b919050565b60008051602061536a833981519152610c56816125a7565b60008051602061538a8339815191526000610c6f6124bc565b90506000610c8c6000805160206153ca8339815191526000611c09565b90506000610cbb7fb65d1ad2ca8116a35ccd39be9425554ab4464be07feb2b70d510d92105c6f0836000611c09565b90506000610cd86000805160206152ca8339815191526000611c09565b90504285600301548660020154610cef9190614b91565b1115610d0e5760405163ae04b1c760e01b815260040160405180910390fd5b600019600280870191909155840154600180870154908601556000818152600586016020526040812090610d40610b03565b9050600080610d5683610d5161100f565b612640565b90925090508115610d6b57610d6b87836126dc565b8015610d7b57610d7b86826126dc565b826000610d86611295565b6001600160a01b03166370a08231610d9c61200f565b6040516001600160e01b031960e084901b1681526001600160a01b039091166004820152602401602060405180830381865afa158015610de0573d6000803e3d6000fd5b505050506040513d601f19601f82011682018060405250810190610e049190614ba4565b9050610e108183614b91565b600187018690559150610e2161100f565b86558015610e5e576000610e36826000612712565b9050610e49610e43612060565b826126dc565b610e538287614b91565b60018d018190559550505b6000610e75610e6e61079c61200f565b60006125f4565b9050610e818184614bbd565b600288018790559250610e9261100f565b60038801558015610ee157610eb8610ea861200f565b610eb361079c61200f565b612747565b610ec28187614bbd565b60018d01558c5481908e90600090610edb908490614b91565b90915550505b600082118015610ef157508c5415155b15610f0757610f0782610f0261200f565b61277d565b610f0f611295565b6001600160a01b03166370a08231610f2561200f565b6040516001600160e01b031960e084901b1681526001600160a01b039091166004820152602401602060405180830381865afa158015610f69573d6000803e3d6000fd5b505050506040513d601f19601f82011682018060405250810190610f8d9190614ba4565b91508115610fe2576001600160a01b038b16610fbc5760405163dfc0394f60e01b815260040160405180910390fd5b610fe2610fc761200f565b8c84610fd1611295565b6001600160a01b03169291906127c9565b610feb83612823565b50610ff7886001614b91565b8c600201819055505050505050505050505050505050565b60008060008051602061532a8339815191525b6002015492915050565b600061103a83836000612859565b9392505050565b60008051602061536a833981519152611059816125a7565b507f0e6b3200a60a991c539f47dddaca04a18eb4bcf2b53906fb44751d827f00140155427f0e6b3200a60a991c539f47dddaca04a18eb4bcf2b53906fb44751d827f00140255565b6000336110af8582856128ea565b6110ba85858561294a565b506001949350505050565b60009081526000805160206153ea833981519152602052604090206001015490565b6000806110f26124bc565b90508360000361113157600281015460009081526005909101602090815260408083206001600160a01b03861684526004019091529020549050610b32565b80600201548414611146576000915050610b32565b60008481526005909101602090815260408083206001600160a01b03861684526004019091529020549050610b32565b6000816001600160a01b038116331480159061119957506111978133611f33565b155b156111b7576040516331d00f8160e11b815260040160405180910390fd5b6111c28585856129a9565b95945050505050565b6111d4826110c5565b6111dd816125a7565b6000805160206153aa83398151915283146112085761120683611201856000611c09565b6129b6565b505b61121283836129fb565b505050565b6000610afe612a17565b600061122c816125a7565b507f083cc98ab296d1a1f01854b5f7a2f47df4425a56ba7b35f7faa3a336067e4800805460ff19169055565b6000610afe612a5b565b6001600160a01b038116331461128b5760405163334bd91960e11b815260040160405180910390fd5b61121282826129b6565b7f0773e532dfede91f04b12a73d3d2acd361424f41f76b4fb79f090161e36b4e00546001600160a01b031690565b6000610b326000805160206153aa83398151915283611c38565b6000610b32600083611cbc565b60006112f5816125a7565b6112fd612a65565b50565b6000805160206152ca833981519152611318816125a7565b610b4c82612ad2565b6112fd3382612747565b7ff0c57e16840df040f15088dc2f81fe391c3923bec73e23a9662efc9c229c6a008054600160401b810460ff16159067ffffffffffffffff166000811580156113715750825b905060008267ffffffffffffffff16600114801561138e5750303b155b90508115801561139c575080155b156113ba5760405163f92ee8a960e01b815260040160405180910390fd5b845467ffffffffffffffff1916600117855583156113e457845460ff60401b1916600160401b1785555b85516113ef90612b15565b61140186602001518760400151612b26565b61140e8660200151612b38565b611416612b63565b611430866101000151876101200151886101400151612b75565b855161143b90612c24565b611449866101800151612cfe565b6101608601517f0e6b3200a60a991c539f47dddaca04a18eb4bcf2b53906fb44751d827f00140355606086015160008051602061538a8339815191529061149f906000805160206152ca83398151915290612d3b565b506114b86000805160206152ca83398151915280612d77565b6114d46000805160206153ca8339815191528860800151612d3b565b506114ee6000805160206153ca8339815191526000612d77565b61150a60008051602061536a8339815191528860a00151612d3b565b5061152460008051602061536a8339815191526000612d77565b6115356000801b8860c00151612d3b565b506115647fb65d1ad2ca8116a35ccd39be9425554ab4464be07feb2b70d510d92105c6f0838860e00151612d3b565b50866101800151156116a85761158c6000805160206153aa8339815191528860e00151612d3b565b506115a96000805160206153aa8339815191528860600151612d3b565b506115c66000805160206153aa8339815191528860800151612d3b565b506115e36000805160206153aa8339815191528860a00151612d3b565b506116006000805160206153aa8339815191528860c00151612d3b565b506116206000805160206153aa83398151915261161b61200f565b612d3b565b5061163b6000805160206153aa83398151915261161b612060565b506116556000805160206153aa8339815191526000612d3b565b5060005b876101a00151518110156116a65761169d6000805160206153aa833981519152896101a00151838151811061169057611690614bd0565b6020026020010151612d3b565b50600101611659565b505b5083156116ef57845460ff60401b19168555604051600181527fc7f505b2f371ae2175ee4913f4499e1f2633a7b5936321eed1cdaeb6115181d29060200160405180910390a15b505050505050565b6000610afe6000805160206153ca8339815191526000611c09565b60008060008051602061538a8339815191525b5492915050565b6000604051630aaf8c3d60e31b815260040160405180910390fd5b6000807f083cc98ab296d1a1f01854b5f7a2f47df4425a56ba7b35f7faa3a336067e48005b5460ff1692915050565b7fa5292f7ccd85acc1b3080c01f5da9af7799f2c26826bd4d79081d6511780bd095460008051602061540a833981519152805460009242039083906117c090869061271084612dda565b90506111c281836301e13380612e29565b6000806117dc6124bc565b336000818152602083815260408083206001600160a01b038a1680855290835292819020805460ff1916891515908117909155815190815290519495509293919284927fceb576d9f15e4e200fdb5096d64d5dfd667e16def20c1eefd14256d8e3faa267929181900390910190a3506001949350505050565b600061185f6124bc565b6002810154600090815260058083016020908152604080842033808652930190915282205492935091908190036118a9576040516336e782ab60e11b815260040160405180910390fd5b600283015460009081526005808501602090815260408084206001600160a01b038716855290920190528120556112126118e161200f565b838361294a565b6000807fcd5ed15c6e187e77e9aee88184c21f4f2182ab5827cb3b7e07fbedcd63f0330061176c565b600061103a8383336129a9565b60008060008051602061532a8339815191525b6001600160a01b0390931660009081526020939093525050604090205490565b6000805160206152ca833981519152611969816125a7565b6112fd612eed565b61197c8233836128ea565b610b4c8282612747565b6000336001600160a01b038316148015906119a857506119a68233611f33565b155b156119b8576119b88233866128ea565b60006119c56000856122e7565b905080156119da576119d8818586612f5a565b505b60006119e46124bc565b6003810154909150611a019085906001600160a01b03168861309f565b600281015460009081526005808301602090815260408084206001600160a01b038a168552909201905281208054889290611a3d908490614b91565b909155505060028101546001600160a01b038616600090815260078301602052604090205414611a885760028101546001600160a01b03861660009081526007830160205260409020555b8060020154846001600160a01b0316866001600160a01b03167f1fdc681a13d8c5da54e301c7ce6542dcde4581e4725043fdab2db12ddc574506611ac93390565b604080516001600160a01b039092168252602082018c90520160405180910390a46002015495945050505050565b6000610b32826130f3565b6000606080828080838160008051602061534a8339815191528054909150158015611b2f57506001810154155b611b785760405162461bcd60e51b81526020600482015260156024820152741152540dcc4c8e88155b9a5b9a5d1a585b1a5e9959605a1b60448201526064015b60405180910390fd5b611b8061311c565b611b8861315b565b60408051600080825260208201909252600f60f81b9c939b5091995046985030975095509350915050565b600082611bbe611747565b15156001148015611bd55750611bd3816112c3565b155b15611bfe57604051636f8bf18b60e11b81526001600160a01b0382166004820152602401611b6f565b6111c2858585613173565b60008281526000805160206152ea833981519152602081905260408220611c30908461323a565b949350505050565b60009182526000805160206153ea833981519152602090815260408084206001600160a01b0393909316845291905290205460ff1690565b600061103a838333613246565b7f52c63247e1f47db19d5ce0460030c497f067ca4cebf71ba98eeadabe20bace04805460609160008051602061532a83398151915291610b7590614b41565b600080611cc76124bc565b905080600201548403611cde576000915050610b32565b83600003611146576001600160a01b038316600090815260068201602052604090205460028201548103611d1757600092505050610b32565b60009081526005909101602090815260408083206001600160a01b03861684526004019091529020549050610b32565b6112fd6000805160206153aa833981519152826111cb565b6000611d696124bc565b6002810154600090815260058201602090815260408083203380855260049091019092528220549293509190819003611db557604051630d4c1ac960e31b815260040160405180910390fd5b6002830154600090815260058401602090815260408083206001600160a01b0386168452600401909152812055611212611ded61200f565b8383610fd1611295565b7fa5292f7ccd85acc1b3080c01f5da9af7799f2c26826bd4d79081d6511780bd0354600090819060008051602061540a8339815191529015611e5b576003810154611e489085906127106000612dda565b9150611e548285614bbd565b9250611e63565b600091508392505b50915091565b6112fd6000805160206153aa833981519152826121e5565b60008060008051602061540a833981519152611725565b6000610afe6000805160206152ca8339815191526000611c09565b600033610c1481858561294a565b6000806110226124bc565b60006040516366345fa160e01b815260040160405180910390fd5b6000816001600160a01b0381163314801590611f0a5750611f088133611f33565b155b15611f28576040516331d00f8160e11b815260040160405180910390fd5b6111c2858585613253565b600080611f3e6124bc565b6001600160a01b039485166000908152602091825260408082209590961681529390525050205460ff1690565b6000816001600160a01b0381163314801590611f8e5750611f8c8133611f33565b155b15611fac576040516331d00f8160e11b815260040160405180910390fd5b6111c2858585612f5a565b6000611fc2816125a7565b6112fd613388565b60005b8151811015610b4c576120076000805160206153aa833981519152838381518110611ffa57611ffa614bd0565b60200260200101516111cb565b600101611fcd565b60008061201a6124bc565b600301546001600160a01b031692915050565b6000610b32826000612712565b60008181526000805160206152ea83398151915260208190526040822061103a906133f1565b60008061206b6124bc565b600401546001600160a01b031692915050565b6000610b32610e6e8361191e565b834211156120b05760405163313c898160e11b815260048101859052602401611b6f565b60007f6e71edae12b1b97f4d1f60370fef10105fa2faae0126114a169c64845d6126c988888861211c8c6001600160a01b031660009081527f5ab42ced628888259c08ac98db1eb0cf702fc1501344311d8b100cd1bfe4bb006020526040902080546001810190915590565b6040805160208101969096526001600160a01b0394851690860152929091166060840152608083015260a082015260c0810186905260e0016040516020818303038152906040528051906020012090506000612177826133fb565b9050600061218782878787613428565b9050896001600160a01b0316816001600160a01b0316146121ce576040516325c0072360e11b81526001600160a01b0380831660048301528b166024820152604401611b6f565b6121d98a8a8a612633565b50505050505050505050565b6121ee826110c5565b6121f7816125a7565b61220183836129b6565b50505050565b6000610b326000836122e7565b6000816001600160a01b038116331480159061223757506122358133611f33565b155b15612255576040516331d00f8160e11b815260040160405180910390fd5b6111c2858585613246565b600061103a83836000613456565b6001600160a01b0391821660009081527f52c63247e1f47db19d5ce0460030c497f067ca4cebf71ba98eeadabe20bace016020908152604080832093909416825291909152205490565b6000610afe60008051602061536a8339815191526000611c09565b60006122de816125a7565b610b4c826134d9565b6000806122f26124bc565b60028101549091506000859003612364576001600160a01b03841660009081526007830160205260409020548181036123315760009350505050610b32565b60009081526005928301602090815260408083206001600160a01b0388168452909401905291909120549150610b329050565b80850361237657600092505050610b32565b5060008481526005918201602090815260408083206001600160a01b038716845290930190522054905092915050565b6000604051633e26cc2f60e11b815260040160405180910390fd5b60008051602061530a8339815191525460009060008051602061540a8339815191529080841115612405576006820154818503906111c29082906127106000612dda565b5060009392505050565b60008061241a6124bc565b90508360000361245757600281015460009081526005918201602090815260408083206001600160a01b0387168452909301905220549050610b32565b8060020154841461246c576000915050610b32565b60008481526005918201602090815260408083206001600160a01b0387168452909301905220549050610b32565b6000805160206153ca8339815191526124b2816125a7565b610b4c823361277d565b7f5c74d456014b1c0eb4368d944667a568313858a3029a650ff0cb7b56f8b57a0090565b60006001600160e01b03198216635a05180f60e01b1480610b325750610b328261351c565b6000632f0a18c560e01b6001600160e01b03198316148061253657506301ffc9a760e01b6001600160e01b03198316145b806125515750630ce3bbe560e41b6001600160e01b03198316145b8061256c5750631883ba3960e21b6001600160e01b03198316145b80612587575063e3bc4e6560e01b6001600160e01b03198316145b80610b3257506001600160e01b031982166301ffc9a760e01b1492915050565b6112fd8133613551565b60008051602061540a8339815191526101f48211156125e3576040516377b92bdf60e01b815260040160405180910390fd5b600181019190915542600290910155565b600061103a612601610b03565b61260c906001614b91565b6126186000600a614cca565b61262061100f565b61262a9190614b91565b85919085612dda565b611212838383600161358a565b60008060008051602061540a8339815191528161265c86611776565b9050600061266d610ac78389614bbd565b9050600061267b8284614b91565b90506000612689828a614bbd565b9050600081156126b9576126b66126a18a6001614b91565b6126ac846001614b91565b8591906000612dda565b90505b6126c281611df7565b426009909801979097559a95995094975050505050505050565b6001600160a01b0382166127065760405163ec442f0560e01b815260006004820152602401611b6f565b610b4c6000838361309f565b600061103a61272282600a614cca565b61272a61100f565b6127349190614b91565b61273c610b03565b61262a906001614b91565b6001600160a01b03821661277157604051634b637e8f60e11b815260006004820152602401611b6f565b610b4c8260008361309f565b60008051602061538a833981519152805483111561279a57805492505b828160000160008282546127ae9190614bbd565b909155506112129050826127c0612060565b85610fd1611295565b604080516001600160a01b0385811660248301528416604482015260648082018490528251808303909101815260849091019091526020810180516001600160e01b03166323b872dd60e01b179052612201908590613672565b60008051602061530a8339815191525460009060008051602061540a833981519152908084111561103a5750600a018290555090565b6000806128646124bc565b90508060020154841480612876575083155b1561288557600091505061103a565b60008481526005820160205260408120600201546128a4906001614b91565b905060006128b381600a614cca565b60008781526005850160205260409020600301546128d19190614b91565b90506128df87838388612dda565b979650505050505050565b60006128f6848461226e565b90506000198114612201578181101561293b57604051637dc7a0d960e11b81526001600160a01b03841660048201526024810182905260448101839052606401611b6f565b6122018484848403600061358a565b6001600160a01b03831661297457604051634b637e8f60e11b815260006004820152602401611b6f565b6001600160a01b03821661299e5760405163ec442f0560e01b815260006004820152602401611b6f565b61121283838361309f565b6000611c308484846136d5565b60006000805160206152ea833981519152816129d28585613807565b90508015611c305760008581526020839052604090206129f2908561388d565b50949350505050565b612a04826110c5565b612a0d816125a7565b6122018383612d3b565b6000807f0773e532dfede91f04b12a73d3d2acd361424f41f76b4fb79f090161e36b4e00905060008154612a559190600160a01b900460ff16614cd9565b91505090565b6000610afe6138a2565b7fa5292f7ccd85acc1b3080c01f5da9af7799f2c26826bd4d79081d6511780bd085460008051602061540a83398151915290612aa5906201518090614b91565b421015612ac55760405163ae04b1c760e01b815260040160405180910390fd5b6007810154600690910155565b60008051602061540a833981519152610bb8821115612b04576040516377b92bdf60e01b815260040160405180910390fd5b600481019190915542600590910155565b612b1d613916565b6112fd8161395f565b612b2e613916565b610b4c82826139e3565b612b40613916565b6112fd81604051806040016040528060018152602001603160f81b815250613a34565b612b6b613916565b612b73613a95565b565b612b7d613916565b600060008051602061530a8339815191525560008051602061540a8339815191526101f4841115612bc1576040516377b92bdf60e01b815260040160405180910390fd5b838155611388831115612be7576040516377b92bdf60e01b815260040160405180910390fd5b60068101839055610bb8821115612c11576040516377b92bdf60e01b815260040160405180910390fd5b6003810191909155426009909101555050565b612c2c613916565b6000612c366124bc565b600160028201556040519091508290612c4e906144d9565b6001600160a01b039091168152602001604051809103906000f080158015612c7a573d6000803e3d6000fd5b506004820180546001600160a01b0319166001600160a01b03929092169190911790556040518290612cab906144d9565b6001600160a01b039091168152602001604051809103906000f080158015612cd7573d6000803e3d6000fd5b5060039190910180546001600160a01b0319166001600160a01b0390921691909117905550565b612d06613916565b7f083cc98ab296d1a1f01854b5f7a2f47df4425a56ba7b35f7faa3a336067e4800805460ff1916821515178155610b4c613ac8565b60006000805160206152ea83398151915281612d578585613ad0565b90508015611c305760008581526020839052604090206129f29085613b6b565b6000805160206153ea8339815191526000612d91846110c5565b600085815260208490526040808220600101869055519192508491839187917fbd79b86ffe0ab8e8776151514217cd7cacd52c909f66475c3af44e129f0b00ff9190a450505050565b600080612de8868686612e29565b9050612df383613b80565b8015612e0f575060008480612e0a57612e0a614cf2565b868809115b156111c257612e1f600182614b91565b9695505050505050565b6000838302816000198587098281108382030391505080600003612e6057838281612e5657612e56614cf2565b049250505061103a565b808411612e805760405163227bc15360e01b815260040160405180910390fd5b6000848688096000868103871696879004966002600389028118808a02820302808a02820302808a02820302808a02820302808a02820302808a02909103029181900381900460010186841190950394909402919094039290920491909117919091029150509392505050565b7fa5292f7ccd85acc1b3080c01f5da9af7799f2c26826bd4d79081d6511780bd055460008051602061540a83398151915290612f2d906201518090614b91565b421015612f4d5760405163ae04b1c760e01b815260040160405180910390fd5b6004810154600390910155565b600083600003612f7d5760405163040736c560e31b815260040160405180910390fd5b6000612f876124bc565b6001600160a01b03841660009081526007820160205260409020546002820154919250908103612fca5760405163912d1a7360e01b815260040160405180910390fd5b60008181526005808401602090815260408084206001600160a01b0389168552909201905281208054889290613001908490614bbd565b909155506130119050868261102c565b6004830154909350613030906001600160a01b03168685610fd1611295565b836001600160a01b0316856001600160a01b031661304b3390565b6001600160a01b03167ffbde797d201c681b91056529119e0b02407c7bb96a4a2c75c01fc9667232c8db868a60405161308e929190918252602082015260400190565b60405180910390a450509392505050565b816130a8611747565b151560011480156130bf57506130bd816112c3565b155b156130e857604051636f8bf18b60e11b81526001600160a01b0382166004820152602401611b6f565b612201848484613bad565b6000807f5ab42ced628888259c08ac98db1eb0cf702fc1501344311d8b100cd1bfe4bb00611931565b7fa16a46d94261c7517cc8ff89f61c0ce93598e3c849801011dee649a6a557d102805460609160008051602061534a83398151915291610b7590614b41565b6060600060008051602061534a833981519152610b64565b6000816001600160a01b038116331480159061319657506131948133611f33565b155b156131b4576040516331d00f8160e11b815260040160405180910390fd5b846000036131d55760405163174a6fcd60e01b815260040160405180910390fd5b60006131e2600086611cbc565b905080156131f7576131f58186876129a9565b505b60006132016124bc565b60038101549091506132219086906001600160a01b031689610fd1611295565b61322c878787613bc0565b600201549695505050505050565b600061103a8383613cbe565b6000611c30848484613ce8565b60008360000361327657604051637ea773a960e01b815260040160405180910390fd5b60006132806124bc565b6001600160a01b038416600090815260078201602052604090205460028201549192509081036132c35760405163912d1a7360e01b815260040160405180910390fd5b6132cd8682612260565b60008281526005808501602090815260408084206001600160a01b038a1685529092019052812080549295508592909190613309908490614bbd565b9091555050600482015461332a906001600160a01b03168688610fd1611295565b836001600160a01b0316856001600160a01b03166133453390565b6001600160a01b03167ffbde797d201c681b91056529119e0b02407c7bb96a4a2c75c01fc9667232c8db898760405161308e929190918252602082015260400190565b7fa5292f7ccd85acc1b3080c01f5da9af7799f2c26826bd4d79081d6511780bd025460008051602061540a833981519152906133c8906201518090614b91565b4210156133e85760405163ae04b1c760e01b815260040160405180910390fd5b60018101549055565b6000610b32825490565b6000610b32613408612a5b565b8360405161190160f01b8152600281019290925260228201526042902090565b60008060008061343a88888888613e0a565b92509250925061344a8282613ed9565b50909695505050505050565b6000806134616124bc565b90508060020154841480613473575083155b1561348257600091505061103a565b600084815260058201602052604081206001908101546134a191614b91565b905060006134b081600a614cca565b60008781526005850160205260409020546134cb9190614b91565b90506128df87828488612dda565b60008051602061540a83398151915261138882111561350b576040516377b92bdf60e01b815260040160405180910390fd5b600781019190915542600890910155565b60006001600160e01b03198216637965db0b60e01b1480610b3257506301ffc9a760e01b6001600160e01b0319831614610b32565b61355b8282611c38565b610b4c5760405163e2517d3f60e01b81526001600160a01b038216600482015260248101839052604401611b6f565b60008051602061532a8339815191526001600160a01b0385166135c35760405163e602df0560e01b815260006004820152602401611b6f565b6001600160a01b0384166135ed57604051634a1406b160e11b815260006004820152602401611b6f565b6001600160a01b0380861660009081526001830160209081526040808320938816835292905220839055811561366b57836001600160a01b0316856001600160a01b03167f8c5be1e5ebec7d5bd14f71427d1e84f3dd0314c0f7b2291e5b200ac8c7c3b9258560405161366291815260200190565b60405180910390a35b5050505050565b60006136876001600160a01b03841683613f92565b905080516000141580156136ac5750808060200190518101906136aa9190614d08565b155b1561121257604051635274afe760e01b81526001600160a01b0384166004820152602401611b6f565b6000836000036136f85760405163eca6f47b60e01b815260040160405180910390fd5b60006137026124bc565b6001600160a01b038416600090815260068201602052604090205460028201549192509081036137455760405163912d1a7360e01b815260040160405180910390fd5b600081815260058301602090815260408083206001600160a01b03881684526004019091528120805488929061377c908490614bbd565b9091555061378c90508682612260565b60048301549093506137a8906001600160a01b0316868561309f565b846001600160a01b0316846001600160a01b03167fdcbc1c05240f31ff3ad067ef1ee35ce4997762752e3a095284754544f4c709d788866040516137f6929190918252602082015260400190565b60405180910390a350509392505050565b60006000805160206153ea8339815191526138228484611c38565b15613883576000848152602082815260408083206001600160a01b0387168085529252808320805460ff1916905551339287917ff6391f5c32d9c69d2a47ea670b442974b53935d1edc7fd64eb21e047a839171b9190a46001915050610b32565b6000915050610b32565b600061103a836001600160a01b038416613fa0565b60007f8b73c3c69bb8fe3d512ecc4cf759cc79239f7b179b0ffacaa9a75d522b39400f6138cd614089565b6138d56140f3565b60408051602081019490945283019190915260608201524660808201523060a082015260c00160405160208183030381529060405280519060200120905090565b7ff0c57e16840df040f15088dc2f81fe391c3923bec73e23a9662efc9c229c6a0054600160401b900460ff16612b7357604051631afcd79f60e31b815260040160405180910390fd5b613967613916565b7f0773e532dfede91f04b12a73d3d2acd361424f41f76b4fb79f090161e36b4e0060008061399484614137565b91509150816139a45760126139a6565b805b83546001600160a81b031916600160a01b60ff92909216919091026001600160a01b031916176001600160a01b0394909416939093179091555050565b6139eb613916565b60008051602061532a8339815191527f52c63247e1f47db19d5ce0460030c497f067ca4cebf71ba98eeadabe20bace03613a258482614d6d565b50600481016122018382614d6d565b613a3c613916565b60008051602061534a8339815191527fa16a46d94261c7517cc8ff89f61c0ce93598e3c849801011dee649a6a557d102613a768482614d6d565b5060038101613a858382614d6d565b5060008082556001909101555050565b613a9d613916565b7fcd5ed15c6e187e77e9aee88184c21f4f2182ab5827cb3b7e07fbedcd63f03300805460ff19169055565b612b73613916565b60006000805160206153ea833981519152613aeb8484611c38565b613883576000848152602082815260408083206001600160a01b03871684529091529020805460ff19166001179055613b213390565b6001600160a01b0316836001600160a01b0316857f2f8788117e7eff1d82e926ec794901d17c78024a50270940304540a733656f0d60405160405180910390a46001915050610b32565b600061103a836001600160a01b038416614213565b60006002826003811115613b9657613b96614e2d565b613ba09190614e43565b60ff166001149050919050565b613bb5614262565b611212838383614288565b6000613bca6124bc565b6002810154600090815260058201602090815260408083206001600160a01b0388168452600401909152812080549293508692909190613c0b908490614b91565b909155505060028101546001600160a01b038416600090815260068301602052604090205414613c565760028101546001600160a01b03841660009081526006830160205260409020555b8060020154826001600160a01b0316846001600160a01b03167fbb58420bb8ce44e11b84e214cc0de10ce5e7c24d0355b2815c3d758b514cae72613c973390565b604080516001600160a01b039092168252602082018a90520160405180910390a450505050565b6000826000018281548110613cd557613cd5614bd0565b9060005260206000200154905092915050565b600083600003613d0b5760405163eca6f47b60e01b815260040160405180910390fd5b6000613d156124bc565b6001600160a01b03841660009081526006820160205260409020546002820154919250908103613d585760405163912d1a7360e01b815260040160405180910390fd5b613d62868261102c565b600082815260058401602090815260408083206001600160a01b0389168452600401909152812080549295508592909190613d9e908490614bbd565b90915550506004820154613dbc906001600160a01b0316868861309f565b846001600160a01b0316846001600160a01b03167fdcbc1c05240f31ff3ad067ef1ee35ce4997762752e3a095284754544f4c709d785896040516137f6929190918252602082015260400190565b600080807f7fffffffffffffffffffffffffffffff5d576e7357a4501ddfe92f46681b20a0841115613e455750600091506003905082613ecf565b604080516000808252602082018084528a905260ff891692820192909252606081018790526080810186905260019060a0016020604051602081039080840390855afa158015613e99573d6000803e3d6000fd5b5050604051601f1901519150506001600160a01b038116613ec557506000925060019150829050613ecf565b9250600091508190505b9450945094915050565b6000826003811115613eed57613eed614e2d565b03613ef6575050565b6001826003811115613f0a57613f0a614e2d565b03613f285760405163f645eedf60e01b815260040160405180910390fd5b6002826003811115613f3c57613f3c614e2d565b03613f5d5760405163fce698f760e01b815260048101829052602401611b6f565b6003826003811115613f7157613f71614e2d565b03610b4c576040516335e2f38360e21b815260048101829052602401611b6f565b606061103a838360006143c6565b60008181526001830160205260408120548015613883576000613fc4600183614bbd565b8554909150600090613fd890600190614bbd565b905080821461403d576000866000018281548110613ff857613ff8614bd0565b906000526020600020015490508087600001848154811061401b5761401b614bd0565b6000918252602080832090910192909255918252600188019052604090208390555b855486908061404e5761404e614e73565b600190038181906000526020600020016000905590558560010160008681526020019081526020016000206000905560019350505050610b32565b600060008051602061534a833981519152816140a361311c565b8051909150156140bb57805160209091012092915050565b815480156140ca579392505050565b7fc5d2460186f7233c927e7db2dcc703c0e500b653ca82273b7bfad8045d85a470935050505090565b600060008051602061534a8339815191528161410d61315b565b80519091501561412557805160209091012092915050565b600182015480156140ca579392505050565b60408051600481526024810182526020810180516001600160e01b031663313ce56760e01b17905290516000918291829182916001600160a01b0387169161417e91614e89565b600060405180830381855afa9150503d80600081146141b9576040519150601f19603f3d011682016040523d82523d6000602084013e6141be565b606091505b50915091508180156141d257506020815110155b15614206576000818060200190518101906141ed9190614ba4565b905060ff8111614204576001969095509350505050565b505b5060009485945092505050565b600081815260018301602052604081205461425a57508154600181810184556000848152602080822090930184905584548482528286019093526040902091909155610b32565b506000610b32565b61426a6118e8565b15612b735760405163d93c066560e01b815260040160405180910390fd5b60008051602061532a8339815191526001600160a01b0384166142c457818160020160008282546142b99190614b91565b909155506143369050565b6001600160a01b038416600090815260208290526040902054828110156143175760405163391434e360e21b81526001600160a01b03861660048201526024810182905260448101849052606401611b6f565b6001600160a01b03851660009081526020839052604090209083900390555b6001600160a01b038316614354576002810180548390039055614373565b6001600160a01b03831660009081526020829052604090208054830190555b826001600160a01b0316846001600160a01b03167fddf252ad1be2c89b69c2b068fc378daa952ba7f163c4a11628f55a4df523b3ef846040516143b891815260200190565b60405180910390a350505050565b6060814710156143eb5760405163cd78605960e01b8152306004820152602401611b6f565b600080856001600160a01b031684866040516144079190614e89565b60006040518083038185875af1925050503d8060008114614444576040519150601f19603f3d011682016040523d82523d6000602084013e614449565b606091505b5091509150612e1f86838360608261446957614464826144b0565b61103a565b815115801561448057506001600160a01b0384163b155b156144a957604051639996b31560e01b81526001600160a01b0385166004820152602401611b6f565b508061103a565b8051156144c05780518082602001fd5b604051630a12f52160e11b815260040160405180910390fd5b61042480614ea683390190565b6000602082840312156144f857600080fd5b81356001600160e01b03198116811461103a57600080fd5b60006020828403121561452257600080fd5b5035919050565b60005b8381101561454457818101518382015260200161452c565b50506000910152565b60008151808452614565816020860160208601614529565b601f01601f19169290920160200192915050565b60208152600061103a602083018461454d565b6001600160a01b03811681146112fd57600080fd5b8035610c398161458c565b600080604083850312156145bf57600080fd5b82356145ca8161458c565b946020939093013593505050565b600080604083850312156145eb57600080fd5b50508035926020909101359150565b60008060006060848603121561460f57600080fd5b833561461a8161458c565b9250602084013561462a8161458c565b929592945050506040919091013590565b6000806040838503121561464e57600080fd5b8235915060208301356146608161458c565b809150509250929050565b60008060006060848603121561468057600080fd5b8335925060208401356146928161458c565b915060408401356146a28161458c565b809150509250925092565b6000602082840312156146bf57600080fd5b813561103a8161458c565b634e487b7160e01b600052604160045260246000fd5b6040516101c0810167ffffffffffffffff81118282101715614704576147046146ca565b60405290565b604051601f8201601f1916810167ffffffffffffffff81118282101715614733576147336146ca565b604052919050565b600082601f83011261474c57600080fd5b813567ffffffffffffffff811115614766576147666146ca565b614779601f8201601f191660200161470a565b81815284602083860101111561478e57600080fd5b816020850160208301376000918101602001919091529392505050565b80151581146112fd57600080fd5b8035610c39816147ab565b600082601f8301126147d557600080fd5b8135602067ffffffffffffffff8211156147f1576147f16146ca565b8160051b61480082820161470a565b928352848101820192828101908785111561481a57600080fd5b83870192505b848310156128df5782356148338161458c565b82529183019190830190614820565b60006020828403121561485457600080fd5b813567ffffffffffffffff8082111561486c57600080fd5b908301906101c0828603121561488157600080fd5b6148896146e0565b614892836145a1565b81526020830135828111156148a657600080fd5b6148b28782860161473b565b6020830152506040830135828111156148ca57600080fd5b6148d68782860161473b565b6040830152506148e8606084016145a1565b60608201526148f9608084016145a1565b608082015261490a60a084016145a1565b60a082015261491b60c084016145a1565b60c082015261492c60e084016145a1565b60e0820152610100838101359082015261012080840135908201526101408084013590820152610160808401359082015261018061496b8185016147b9565b908201526101a0838101358381111561498357600080fd5b61498f888287016147c4565b918301919091525095945050505050565b600080604083850312156149b357600080fd5b82356149be8161458c565b91506020830135614660816147ab565b60ff60f81b881681526000602060e060208401526149ef60e084018a61454d565b8381036040850152614a01818a61454d565b606085018990526001600160a01b038816608086015260a0850187905284810360c08601528551808252602080880193509091019060005b81811015614a5557835183529284019291840191600101614a39565b50909c9b505050505050505050505050565b60008060408385031215614a7a57600080fd5b8235614a858161458c565b915060208301356146608161458c565b600060208284031215614aa757600080fd5b813567ffffffffffffffff811115614abe57600080fd5b611c30848285016147c4565b600080600080600080600060e0888a031215614ae557600080fd5b8735614af08161458c565b96506020880135614b008161458c565b95506040880135945060608801359350608088013560ff81168114614b2457600080fd5b9699959850939692959460a0840135945060c09093013592915050565b600181811c90821680614b5557607f821691505b602082108103614b7557634e487b7160e01b600052602260045260246000fd5b50919050565b634e487b7160e01b600052601160045260246000fd5b80820180821115610b3257610b32614b7b565b600060208284031215614bb657600080fd5b5051919050565b81810381811115610b3257610b32614b7b565b634e487b7160e01b600052603260045260246000fd5b600181815b80851115614c21578160001904821115614c0757614c07614b7b565b80851615614c1457918102915b93841c9390800290614beb565b509250929050565b600082614c3857506001610b32565b81614c4557506000610b32565b8160018114614c5b5760028114614c6557614c81565b6001915050610b32565b60ff841115614c7657614c76614b7b565b50506001821b610b32565b5060208310610133831016604e8410600b8410161715614ca4575081810a610b32565b614cae8383614be6565b8060001904821115614cc257614cc2614b7b565b029392505050565b600061103a60ff841683614c29565b60ff8181168382160190811115610b3257610b32614b7b565b634e487b7160e01b600052601260045260246000fd5b600060208284031215614d1a57600080fd5b815161103a816147ab565b601f821115611212576000816000526020600020601f850160051c81016020861015614d4e5750805b601f850160051c820191505b818110156116ef57828155600101614d5a565b815167ffffffffffffffff811115614d8757614d876146ca565b614d9b81614d958454614b41565b84614d25565b602080601f831160018114614dd05760008415614db85750858301515b600019600386901b1c1916600185901b1785556116ef565b600085815260208120601f198616915b82811015614dff57888601518255948401946001909101908401614de0565b5085821015614e1d5787850151600019600388901b60f8161c191681555b5050505050600190811b01905550565b634e487b7160e01b600052602160045260246000fd5b600060ff831680614e6457634e487b7160e01b600052601260045260246000fd5b8060ff84160691505092915050565b634e487b7160e01b600052603160045260246000fd5b60008251614e9b818460208701614529565b919091019291505056fe608060405234801561001057600080fd5b5060405161042438038061042483398101604081905261002f9161035d565b6100456001600160a01b0382163360001961004b565b506103d7565b604080516001600160a01b038416602482015260448082018490528251808303909101815260649091019091526020810180516001600160e01b0390811663095ea7b360e01b179091526100a3908590839061011016565b61010a57604080516001600160a01b038516602482015260006044808301919091528251808303909101815260649091019091526020810180516001600160e01b0390811663095ea7b360e01b179091526101009186916101b816565b61010a84826101b8565b50505050565b6000806000846001600160a01b03168460405161012d9190610386565b6000604051808303816000865af19150503d806000811461016a576040519150601f19603f3d011682016040523d82523d6000602084013e61016f565b606091505b509150915081801561019957508051158061019957508080602001905181019061019991906103b5565b80156101af57506000856001600160a01b03163b115b95945050505050565b60006101cd6001600160a01b03841683610225565b905080516000141580156101f25750808060200190518101906101f091906103b5565b155b1561022057604051635274afe760e01b81526001600160a01b03841660048201526024015b60405180910390fd5b505050565b60606102338383600061023a565b9392505050565b60608147101561025f5760405163cd78605960e01b8152306004820152602401610217565b600080856001600160a01b0316848660405161027b9190610386565b60006040518083038185875af1925050503d80600081146102b8576040519150601f19603f3d011682016040523d82523d6000602084013e6102bd565b606091505b5090925090506102ce8683836102d8565b9695505050505050565b6060826102ed576102e882610334565b610233565b815115801561030457506001600160a01b0384163b155b1561032d57604051639996b31560e01b81526001600160a01b0385166004820152602401610217565b5080610233565b8051156103445780518082602001fd5b604051630a12f52160e11b815260040160405180910390fd5b60006020828403121561036f57600080fd5b81516001600160a01b038116811461023357600080fd5b6000825160005b818110156103a7576020818601810151858301520161038d565b506000920191825250919050565b6000602082840312156103c757600080fd5b8151801515811461023357600080fd5b603f806103e56000396000f3fe6080604052600080fdfea26469706673582212202094c4402fd022cfac15ded7d5d47e709003e785004806a8082fa916052d246d64736f6c6343000819003328b4ce8dd96bba62f67a9385ecebb6be0f2947f18b645db61d59f3721e0c7bb7c1f6fe24621ce81ec5827caf0253cadb74709b061630e6b55e82371705932000a5292f7ccd85acc1b3080c01f5da9af7799f2c26826bd4d79081d6511780bd0a52c63247e1f47db19d5ce0460030c497f067ca4cebf71ba98eeadabe20bace00a16a46d94261c7517cc8ff89f61c0ce93598e3c849801011dee649a6a557d1003a5959aa5bc8d8b46605e2d91aaab74af2debdc52da8926bc1bfded70d6f93360e6b3200a60a991c539f47dddaca04a18eb4bcf2b53906fb44751d827f001400e799c73ff785ac053943f5d98452f7fa0bcf54da67826fc217d6094dec75c5ee9c6e3ae929b539a99db03120eac7d9f862d68479b44f1eec05ab6036fcf5683002dd7bc7dec4dceedda775e58dd541e08a116c6c53815c0bd028192f7b626800a5292f7ccd85acc1b3080c01f5da9af7799f2c26826bd4d79081d6511780bd00a264697066735822122032bdcad34ce09b02345a45b87a01229f783095fd4bc455a658894fd7944b2da164736f6c63430008190033",
        "linkReferences": {}
    },
    "methodIdentifiers": {
        "DEFAULT_ADMIN_ROLE()": "a217fddf",
        "DOMAIN_SEPARATOR()": "3644e515",
        "adminRole()": "009f2f3c",
        "allowance(address,address)": "dd62ed3e",
        "approve(address,uint256)": "095ea7b3",
        "asset()": "38d52e0f",
        "assetManagerRole()": "49dcd6a1",
        "balanceOf(address)": "70a08231",
        "burn(uint256)": "42966c68",
        "burnFrom(address,uint256)": "79cc6790",
        "calculateManagementFee(uint256)": "51ab6c11",
        "calculatePerformanceFee(uint256)": "f4d0ebc7",
        "calculateProtocolFee(uint256)": "9c7c270c",
        "cancelRequestDeposit()": "9c428921",
        "cancelRequestRedeem()": "58205209",
        "claimableDepositRequest(uint256,address)": "995ea21a",
        "claimableRedeemRequest(uint256,address)": "eaed1d07",
        "claimableSilo()": "cce96c21",
        "convertToAssets(uint256)": "07a2d13a",
        "convertToAssets(uint256,uint256)": "181e7b3b",
        "convertToShares(uint256)": "c6e6f592",
        "convertToShares(uint256,uint256)": "db2088f4",
        "deactivateWhitelist()": "3597d7f3",
        "decimals()": "313ce567",
        "deposit(uint256,address)": "6e553f65",
        "deposit(uint256,address,address)": "2e2d2984",
        "eip712Domain()": "84b0196e",
        "epochId()": "aa9bbc0c",
        "getRoleAdmin(bytes32)": "248a9ca3",
        "getRoleMember(bytes32,uint256)": "9010d07c",
        "getRoleMemberCount(bytes32)": "ca15c873",
        "getWhitelistActivated()": "50921b77",
        "grantRole(bytes32,address)": "2f2ff15d",
        "hasRole(bytes32,address)": "91d14854",
        "highWaterMark()": "1e8410da",
        "hopperRole()": "a8ce7959",
        "initialize((address,string,string,address,address,address,address,address,uint256,uint256,uint256,uint256,bool,address[]))": "442b92d8",
        "isOperator(address,address)": "b6363cf2",
        "isWhitelisted(address)": "3af32abf",
        "lastFeeTime()": "66b5ae1f",
        "managementFee()": "a6f7f5d6",
        "maxDeposit(address)": "402d267d",
        "maxMint(address)": "c63d75b6",
        "maxRedeem(address)": "d905777e",
        "maxWithdraw(address)": "ce96cb77",
        "mint(uint256,address)": "94bf804d",
        "mint(uint256,address,address)": "da39b3e7",
        "name()": "06fdde03",
        "nonces(address)": "7ecebe00",
        "paused()": "5c975abb",
        "pendingDepositRequest(uint256,address)": "26c6f96c",
        "pendingRedeemRequest(uint256,address)": "f5a23d8d",
        "pendingSilo()": "c6d8a074",
        "performanceFee()": "87788782",
        "permit(address,address,uint256,uint256,uint8,bytes32,bytes32)": "d505accf",
        "previewDeposit(uint256)": "ef8b30f7",
        "previewMint(uint256)": "b3d7f6b9",
        "previewRedeem(uint256)": "4cdad506",
        "previewWithdraw(uint256)": "0a28a477",
        "protocolFee()": "b0e21e8a",
        "redeem(uint256,address,address)": "ba087652",
        "renounceRole(bytes32,address)": "36568abe",
        "requestDeposit(uint256,address,address)": "85b77f45",
        "requestRedeem(uint256,address,address)": "7d41c86e",
        "revokeRole(bytes32,address)": "d547741f",
        "revokeWhitelist(address)": "9c7f3315",
        "setManagementFee()": "bbdf540c",
        "setOperator(address,bool)": "558a7297",
        "setPerformanceFee()": "42219a93",
        "setProtocolFee()": "73b99f10",
        "settle()": "11da60b4",
        "share()": "a8d5fd65",
        "supportsInterface(bytes4)": "01ffc9a7",
        "symbol()": "95d89b41",
        "toUnwind()": "4a3b62ae",
        "totalAssets()": "01e1d114",
        "totalSupply()": "18160ddd",
        "transfer(address,uint256)": "a9059cbb",
        "transferFrom(address,address,uint256)": "23b872dd",
        "unwind(uint256)": "fad898c2",
        "updateManagementFee(uint256)": "030d624a",
        "updatePerformanceFee(uint256)": "e8981330",
        "updateProtocolFee(uint256)": "4256dd78",
        "updateTotalAssets(uint256)": "1f4f519c",
        "valorizationRole()": "e72d1d09",
        "whitelist(address)": "9b19251a",
        "whitelist(address[])": "bd8aa780",
        "withdraw(uint256,address,address)": "b460af94"
    },
    "storageLayout": {
        "storage": [],
        "types": {}
    },
    "id": 87
}